{
  "transactions": [
    {
      "hash": "0x8de0386bef3a0aa1cd293688e123a27c858df37b1374fc59bb6737bf65ca4bc7",
      "transactionType": "CREATE",
      "contractName": null,
      "contractAddress": "0x6D31e61DDe5f12c5E8151C9846C7e8dfDE4B7603",
      "function": null,
      "arguments": null,
      "transaction": {
        "type": "0x00",
        "from": "0xaa7dbadaa2f1aded7e9299947b3a94ea35eab069",
        "gas": "0x92d8d",
        "value": "0x0",
        "data": "0x608060405234801561001057600080fd5b5061001a3361001f565b610071565b602080546001600160a01b038381166001600160a01b0319831681179093556040519116919082907f8be0079c531659141344cd1fd0a4f28419497f9722a3daafe3b4186f6b6457e090600090a35050565b6106f4806100806000396000f3fe6080604052600436106100595760003560e01c806340c10f19146100705780634a0687ef14610090578063715018a6146100b05780638da5cb5b146100c557806390657147146100fa578063f2fde38b1461011a57610068565b366100685761006661013a565b005b61006661013a565b34801561007c57600080fd5b5061006661008b36600461049b565b61016c565b34801561009c57600080fd5b506100666100ab3660046104c5565b610192565b3480156100bc57600080fd5b5061006661022e565b3480156100d157600080fd5b506020546001600160a01b03166040516001600160a01b03909116815260200160405180910390f35b34801561010657600080fd5b5061006661011536600461058a565b610240565b34801561012657600080fd5b506100666101353660046104c5565b610250565b61016a6101657f360894a13ba1a3210667c828492db98dca3e2076cc3735a920a3ca505d382bbc5490565b6102ce565b565b6101746102f2565b61018e82826040518060200160405280600081525061034c565b5050565b6001600160a01b0381166101b95760405163d92e233d60e01b815260040160405180910390fd5b60006101e37f360894a13ba1a3210667c828492db98dca3e2076cc3735a920a3ca505d382bbc5490565b6001600160a01b03161461020a576040516302ed543d60e51b815260040160405180910390fd5b7f360894a13ba1a3210667c828492db98dca3e2076cc3735a920a3ca505d382bbc55565b6102366102f2565b61016a60006103aa565b61024b8383836103fc565b505050565b6102586102f2565b6001600160a01b0381166102c25760405162461bcd60e51b815260206004820152602660248201527f4f776e61626c653a206e6577206f776e657220697320746865207a65726f206160448201526564647265737360d01b60648201526084015b60405180910390fd5b6102cb816103aa565b50565b3660008037600080366000845af43d6000803e8080156102ed573d6000f35b3d6000fd5b6020546001600160a01b0316331461016a5760405162461bcd60e51b815260206004820181905260248201527f4f776e61626c653a2063616c6c6572206973206e6f7420746865206f776e657260448201526064016102b9565b60405163c68d428360e01b8152309063c68d42839061037390869086908690600401610644565b600060405180830381600087803b15801561038d57600080fd5b505af11580156103a1573d6000803e3d6000fd5b50505050505050565b602080546001600160a01b038381166001600160a01b0319831681179093556040519116919082907f8be0079c531659141344cd1fd0a4f28419497f9722a3daafe3b4186f6b6457e090600090a35050565b604051633504b4d160e21b81523060048201526001600160a01b0384169063d412d34490602401600060405180830381600087803b15801561043d57600080fd5b505af1158015610451573d6000803e3d6000fd5b50506040516285fc1360e71b81523092506342fe098091506103739060009060129087908790600401610674565b80356001600160a01b038116811461049657600080fd5b919050565b600080604083850312156104ae57600080fd5b6104b78361047f565b946020939093013593505050565b6000602082840312156104d757600080fd5b6104e08261047f565b9392505050565b634e487b7160e01b600052604160045260246000fd5b600082601f83011261050e57600080fd5b813567ffffffffffffffff80821115610529576105296104e7565b604051601f8301601f19908116603f01168101908282118183101715610551576105516104e7565b8160405283815286602085880101111561056a57600080fd5b836020870160208301376000602085830101528094505050505092915050565b60008060006060848603121561059f57600080fd5b6105a88461047f565b9250602084013567ffffffffffffffff808211156105c557600080fd5b6105d1878388016104fd565b935060408601359150808211156105e757600080fd5b506105f4868287016104fd565b9150509250925092565b6000815180845260005b8181101561062457602081850181015186830182015201610608565b506000602082860101526020601f19601f83011685010191505092915050565b60018060a01b038416815282602082015260606040820152600061066b60608301846105fe565b95945050505050565b6001600160a01b038516815260ff841660208201526080604082018190526000906106a1908301856105fe565b82810360608401526106b381856105fe565b97965050505050505056fea2646970667358221220470a3084ab3a6dacfff99e752cf69297d83677f8bef5ef5c4a3d7aabf440673864736f6c63430008170033",
        "nonce": "0x0"
      },
      "additionalContracts": [],
      "isFixedGasLimit": false
    },
    {
      "hash": "0x141501ebe8cdb4b9a94a06692d8f1be819fe6460d5096656352d78482af92dd2",
      "transactionType": "CALL",
      "contractName": "test/MintableSuperToken.sol:MintableSuperToken",
      "contractAddress": "0x6D31e61DDe5f12c5E8151C9846C7e8dfDE4B7603",
      "function": "initialize(address,string,string)",
      "arguments": [
        "0x254C2e152E8602839D288A7bccdf3d0974597193",
        "\"time\"",
        "\"time\""
      ],
      "transaction": {
        "type": "0x00",
        "from": "0xaa7dbadaa2f1aded7e9299947b3a94ea35eab069",
        "to": "0x6d31e61dde5f12c5e8151c9846c7e8dfde4b7603",
        "gas": "0x48136",
        "value": "0x0",
        "data": "0x90657147000000000000000000000000254c2e152e8602839d288a7bccdf3d0974597193000000000000000000000000000000000000000000000000000000000000006000000000000000000000000000000000000000000000000000000000000000a0000000000000000000000000000000000000000000000000000000000000000474696d6500000000000000000000000000000000000000000000000000000000000000000000000000000000000000000000000000000000000000000000000474696d6500000000000000000000000000000000000000000000000000000000",
        "nonce": "0x1"
      },
      "additionalContracts": [],
      "isFixedGasLimit": false
    },
    {
      "hash": "0x81ec4011e92ca1c667ad2627008516373976252415d9aff5f4b7730ed60976b0",
      "transactionType": "CREATE",
      "contractName": null,
      "contractAddress": "0xFcBe8E1BaE528b28677819E89249ECA036Dc6aFc",
      "function": null,
      "arguments": null,
      "transaction": {
        "type": "0x00",
        "from": "0xaa7dbadaa2f1aded7e9299947b3a94ea35eab069",
        "gas": "0x92d8d",
        "value": "0x0",
        "data": "0x608060405234801561001057600080fd5b5061001a3361001f565b610071565b602080546001600160a01b038381166001600160a01b0319831681179093556040519116919082907f8be0079c531659141344cd1fd0a4f28419497f9722a3daafe3b4186f6b6457e090600090a35050565b6106f4806100806000396000f3fe6080604052600436106100595760003560e01c806340c10f19146100705780634a0687ef14610090578063715018a6146100b05780638da5cb5b146100c557806390657147146100fa578063f2fde38b1461011a57610068565b366100685761006661013a565b005b61006661013a565b34801561007c57600080fd5b5061006661008b36600461049b565b61016c565b34801561009c57600080fd5b506100666100ab3660046104c5565b610192565b3480156100bc57600080fd5b5061006661022e565b3480156100d157600080fd5b506020546001600160a01b03166040516001600160a01b03909116815260200160405180910390f35b34801561010657600080fd5b5061006661011536600461058a565b610240565b34801561012657600080fd5b506100666101353660046104c5565b610250565b61016a6101657f360894a13ba1a3210667c828492db98dca3e2076cc3735a920a3ca505d382bbc5490565b6102ce565b565b6101746102f2565b61018e82826040518060200160405280600081525061034c565b5050565b6001600160a01b0381166101b95760405163d92e233d60e01b815260040160405180910390fd5b60006101e37f360894a13ba1a3210667c828492db98dca3e2076cc3735a920a3ca505d382bbc5490565b6001600160a01b03161461020a576040516302ed543d60e51b815260040160405180910390fd5b7f360894a13ba1a3210667c828492db98dca3e2076cc3735a920a3ca505d382bbc55565b6102366102f2565b61016a60006103aa565b61024b8383836103fc565b505050565b6102586102f2565b6001600160a01b0381166102c25760405162461bcd60e51b815260206004820152602660248201527f4f776e61626c653a206e6577206f776e657220697320746865207a65726f206160448201526564647265737360d01b60648201526084015b60405180910390fd5b6102cb816103aa565b50565b3660008037600080366000845af43d6000803e8080156102ed573d6000f35b3d6000fd5b6020546001600160a01b0316331461016a5760405162461bcd60e51b815260206004820181905260248201527f4f776e61626c653a2063616c6c6572206973206e6f7420746865206f776e657260448201526064016102b9565b60405163c68d428360e01b8152309063c68d42839061037390869086908690600401610644565b600060405180830381600087803b15801561038d57600080fd5b505af11580156103a1573d6000803e3d6000fd5b50505050505050565b602080546001600160a01b038381166001600160a01b0319831681179093556040519116919082907f8be0079c531659141344cd1fd0a4f28419497f9722a3daafe3b4186f6b6457e090600090a35050565b604051633504b4d160e21b81523060048201526001600160a01b0384169063d412d34490602401600060405180830381600087803b15801561043d57600080fd5b505af1158015610451573d6000803e3d6000fd5b50506040516285fc1360e71b81523092506342fe098091506103739060009060129087908790600401610674565b80356001600160a01b038116811461049657600080fd5b919050565b600080604083850312156104ae57600080fd5b6104b78361047f565b946020939093013593505050565b6000602082840312156104d757600080fd5b6104e08261047f565b9392505050565b634e487b7160e01b600052604160045260246000fd5b600082601f83011261050e57600080fd5b813567ffffffffffffffff80821115610529576105296104e7565b604051601f8301601f19908116603f01168101908282118183101715610551576105516104e7565b8160405283815286602085880101111561056a57600080fd5b836020870160208301376000602085830101528094505050505092915050565b60008060006060848603121561059f57600080fd5b6105a88461047f565b9250602084013567ffffffffffffffff808211156105c557600080fd5b6105d1878388016104fd565b935060408601359150808211156105e757600080fd5b506105f4868287016104fd565b9150509250925092565b6000815180845260005b8181101561062457602081850181015186830182015201610608565b506000602082860101526020601f19601f83011685010191505092915050565b60018060a01b038416815282602082015260606040820152600061066b60608301846105fe565b95945050505050565b6001600160a01b038516815260ff841660208201526080604082018190526000906106a1908301856105fe565b82810360608401526106b381856105fe565b97965050505050505056fea2646970667358221220470a3084ab3a6dacfff99e752cf69297d83677f8bef5ef5c4a3d7aabf440673864736f6c63430008170033",
        "nonce": "0x2"
      },
      "additionalContracts": [],
      "isFixedGasLimit": false
    },
    {
      "hash": "0x9f3b966ec218dd1d077ad35b477098a5d32eb3d638fe41daf9347cfb7655424d",
      "transactionType": "CALL",
      "contractName": "test/MintableSuperToken.sol:MintableSuperToken",
      "contractAddress": "0xFcBe8E1BaE528b28677819E89249ECA036Dc6aFc",
      "function": "initialize(address,string,string)",
      "arguments": [
        "0x254C2e152E8602839D288A7bccdf3d0974597193",
        "\"cash\"",
        "\"cash\""
      ],
      "transaction": {
        "type": "0x00",
        "from": "0xaa7dbadaa2f1aded7e9299947b3a94ea35eab069",
        "to": "0xfcbe8e1bae528b28677819e89249eca036dc6afc",
        "gas": "0x48136",
        "value": "0x0",
        "data": "0x90657147000000000000000000000000254c2e152e8602839d288a7bccdf3d0974597193000000000000000000000000000000000000000000000000000000000000006000000000000000000000000000000000000000000000000000000000000000a00000000000000000000000000000000000000000000000000000000000000004636173680000000000000000000000000000000000000000000000000000000000000000000000000000000000000000000000000000000000000000000000046361736800000000000000000000000000000000000000000000000000000000",
        "nonce": "0x3"
      },
      "additionalContracts": [],
      "isFixedGasLimit": false
    },
    {
      "hash": "0x14fab0be1c99a0ec12368d4dfa7eb2fb693697e613c5956902257a58398894c2",
      "transactionType": "CREATE",
      "contractName": "Pensions",
      "contractAddress": "0x95060a0C68f6ff845cb35451c1d2F234893C1DD7",
      "function": null,
      "arguments": [
        "0xFcBe8E1BaE528b28677819E89249ECA036Dc6aFc",
        "0x6D31e61DDe5f12c5E8151C9846C7e8dfDE4B7603"
      ],
      "transaction": {
        "type": "0x00",
        "from": "0xaa7dbadaa2f1aded7e9299947b3a94ea35eab069",
        "gas": "0x398a6f",
        "value": "0x0",
        "data": "0x610120604052620151806004553480156200001957600080fd5b5060405162002c1138038062002c118339810160408190526200003c916200047d565b816001600160a01b03166320bc44256040518163ffffffff1660e01b8152600401602060405180830381865afa1580156200007b573d6000803e3d6000fd5b505050506040513d601f19601f82011682018060405250810190620000a19190620004bc565b6001600160a01b0316608052620000bb600180806200015c565b6001600160a01b0380831660a08190526000908152600560209081526040808320805460ff1916600117905584841660c090815281518083019092528382529181019290925251620001119216903090620001d2565b6001600160a01b0390811660e05260408051808201909152600081526001602082015260a051620001469216903090620001d2565b6001600160a01b03166101005250620004f29050565b6080516001600160a01b031663ad3915c86200017a8585856200027a565b6040518263ffffffff1660e01b81526004016200019991815260200190565b600060405180830381600087803b158015620001b457600080fd5b505af1158015620001c9573d6000803e3d6000fd5b50505050505050565b600080620001e085620002b1565b604051630779d36560e01b81526001600160a01b03888116600483015287811660248301528651151560448301526020870151151560648301529193509083169150630779d365906084016020604051808303816000875af11580156200024b573d6000803e3d6000fd5b505050506040513d601f19601f82011682018060405250810190620002719190620004bc565b95945050505050565b640100000001836200028e57640200000000175b826200029c57640c00000000175b81620002aa57643000000000175b9392505050565b7f65599bf746e17a00ea62e3610586992d88101b78eec3cf380706621fb97ea8375460008051602062002bf1833981519152546001600160a01b0381166200042d576001600160a01b0382166200036a57826001600160a01b03166320bc44256040518163ffffffff1660e01b8152600401602060405180830381865afa15801562000341573d6000803e3d6000fd5b505050506040513d601f19601f82011682018060405250810190620003679190620004bc565b91505b604051635b69006f60e11b81527fdfd8ece9bfbcb8c5c540edb935641f63d67686490a1ab97f000288759f30a94660048201526001600160a01b0383169063b6d200de90602401602060405180830381865afa158015620003cf573d6000803e3d6000fd5b505050506040513d601f19601f82011682018060405250810190620003f59190620004bc565b9050817f65599bf746e17a00ea62e3610586992d88101b78eec3cf380706621fb97ea837558060008051602062002bf1833981519152555b6001600160a01b038216620004465762000446620004dc565b6001600160a01b0381166200045f576200045f620004dc565b915091565b6001600160a01b03811681146200047a57600080fd5b50565b600080604083850312156200049157600080fd5b82516200049e8162000464565b6020840151909250620004b18162000464565b809150509250929050565b600060208284031215620004cf57600080fd5b8151620002aa8162000464565b634e487b7160e01b600052600160045260246000fd5b60805160a05160c05160e0516101005161260b620005e66000396000818161022a0152818161089101528181610b0d01528181610b9f01528181610ea90152818161140701526114a10152600081816102ee01528181610911015281816111a40152818161123f015281816112f1015281816113d001526115180152600081816101b301526113ad01526000818161032801528181610733015281816108c201528181610d310152818161102501526114d20152600081816102510152818161046b0152818161056c01528181610641015281816107c1015281816109c401528181610a7c0152610c5c015261260b6000f3fe608060405234801561001057600080fd5b50600436106101a95760003560e01c80639fc11d48116100f9578063cabb62f011610097578063ea3b98f211610071578063ea3b98f214610431578063ef4cadc514610444578063f4f8495b1461044e578063fe2046011461045657600080fd5b8063cabb62f0146103f8578063d86ed3e51461040b578063dc7316e81461041e57600080fd5b8063bcb4546f116100d3578063bcb4546f1461037e578063c0968ca4146103a5578063c322dbe4146103b8578063c4ff8a5e146103c957600080fd5b80639fc11d481461034a578063b8b4e74c14610354578063ba18e7621461037557600080fd5b80635f9e7d77116101665780637447026c116101405780637447026c146102d857806374eda276146102e9578063884d1f4014610310578063961be3911461032357600080fd5b80635f9e7d77146102865780636942ef4a1461029957806372ca8a3e146102b457600080fd5b806316ada547146101ae578063230dbd29146101f257806330d9c91514610212578063475054421461022557806349f289dc1461024c57806353c11f9914610273575b600080fd5b6101d57f000000000000000000000000000000000000000000000000000000000000000081565b6040516001600160a01b0390911681526020015b60405180910390f35b610205610200366004611ef6565b61045e565b6040516101e99190612011565b610205610220366004612024565b61053a565b6101d57f000000000000000000000000000000000000000000000000000000000000000081565b6101d57f000000000000000000000000000000000000000000000000000000000000000081565b610205610281366004611ef6565b61055f565b610205610294366004612024565b610634565b6102a1610711565b604051600b9190910b81526020016101e9565b6102c86102c23660046120c3565b50600190565b60405190151581526020016101e9565b6001546001600160a01b03166101d5565b6101d57f000000000000000000000000000000000000000000000000000000000000000081565b61020561031e366004612024565b6107b4565b6101d57f000000000000000000000000000000000000000000000000000000000000000081565b61035261088b565b005b6103676103623660046120c3565b6108ed565b6040519081526020016101e9565b61036760045481565b6103677fa9214cc96615e0085d3bb077758db69497dc2dce3b2b1e97bc93c3d18d83efd381565b6103676103b33660046120ee565b610983565b6003546001600160a01b03166101d5565b6101d56103d73660046120c3565b6001600160a01b039081166000908152602081905260409020600101541690565b6001546101d5906001600160a01b031681565b610205610419366004611ef6565b6109b7565b61035261042c3660046120ee565b610a7a565b6003546101d5906001600160a01b031681565b6102a1620f424081565b610367610b09565b6102a1610b9b565b6060336001600160a01b037f000000000000000000000000000000000000000000000000000000000000000016146104a957604051632f2d36a760e01b815260040160405180910390fd5b6104b289610c24565b6104f55782828080601f01602080910402602001604051908101604052809392919081815260200183838082843760009201919091525092935061052d92505050565b600061050387890189612139565b50905060008061051587890189612181565b915091506105278d8484848a8a610cea565b93505050505b9998505050505050505050565b604080518082019091526002815261060f60f31b60208201525b979650505050505050565b6060336001600160a01b037f00000000000000000000000000000000000000000000000000000000000000001614158061059f575061059d89610c24565b155b806105a8575060005b156105ec5782828080601f01602080910402602001604051908101604052809392919081815260200183838082843760009201919091525092935061052d92505050565b6000806105fb888a018a612139565b909250905060008061060f888a018a6121ad565b915091506106228e858584868c8c610dc7565b9e9d5050505050505050505050505050565b6060336001600160a01b037f000000000000000000000000000000000000000000000000000000000000000016141580610674575061067287610c24565b155b8061067d575060005b156106a15750604080518082019091526002815261060f60f31b6020820152610554565b6000806106b086880188612139565b90925090506000806106cc6001600160a01b038d168585610f48565b50509150915081816040516020016106f1929190918252600b0b602082015260400190565b604051602081830303815290604052945050505050979650505050505050565b6040516370a0823160e01b815230600482015260009081906001600160a01b037f000000000000000000000000000000000000000000000000000000000000000016906370a0823190602401602060405180830381865afa15801561077a573d6000803e3d6000fd5b505050506040513d601f19601f8201168201806040525081019061079e91906121d2565b9050600454816107ae9190612217565b91505090565b6060336001600160a01b037f000000000000000000000000000000000000000000000000000000000000000016146107ff57604051632f2d36a760e01b815260040160405180910390fd5b61080887610c24565b61082b5750604080518082019091526002815261060f60f31b6020820152610554565b600061083985870187612139565b5090506000806108536001600160a01b038c168430610f48565b505060408051600b9290920b60208301528181019290925281518082038301815260609091019091529b9a5050505050505050505050565b6108ea307f00000000000000000000000000000000000000000000000000000000000000006108b8610711565b6001600160a01b037f000000000000000000000000000000000000000000000000000000000000000016929190610fea565b50565b6040516321dd577760e01b81526001600160a01b03828116600483015260009182917f000000000000000000000000000000000000000000000000000000000000000016906321dd5777906024016040805180830381865afa158015610957573d6000803e3d6000fd5b505050506040513d601f19601f8201168201806040525081019061097b919061222b565b509392505050565b6401000000018361099657640200000000175b826109a357640c00000000175b816109b057643000000000175b9392505050565b6060336001600160a01b037f00000000000000000000000000000000000000000000000000000000000000001614610a0257604051632f2d36a760e01b815260040160405180910390fd5b610a0b89610c24565b610a4e5782828080601f01602080910402602001604051908101604052809392919081815260200183838082843760009201919091525092935061052d92505050565b6000610a5c87890189612139565b509050610a6b8b828686611014565b9b9a5050505050505050505050565b7f00000000000000000000000000000000000000000000000000000000000000006001600160a01b031663ad3915c8610ab4858585610983565b6040518263ffffffff1660e01b8152600401610ad291815260200190565b600060405180830381600087803b158015610aec57600080fd5b505af1158015610b00573d6000803e3d6000fd5b50505050505050565b60007f00000000000000000000000000000000000000000000000000000000000000006001600160a01b031663a754a7026040518163ffffffff1660e01b8152600401602060405180830381865afa158015610b69573d6000803e3d6000fd5b505050506040513d601f19601f82011682018060405250810190610b8d919061224f565b6001600160801b0316905090565b60007f00000000000000000000000000000000000000000000000000000000000000006001600160a01b031663d4f0d6446040518163ffffffff1660e01b8152600401602060405180830381865afa158015610bfb573d6000803e3d6000fd5b505050506040513d601f19601f82011682018060405250810190610c1f9190612278565b905090565b604051635b69006f60e11b81527fa9214cc96615e0085d3bb077758db69497dc2dce3b2b1e97bc93c3d18d83efd360048201526000907f00000000000000000000000000000000000000000000000000000000000000006001600160a01b03169063b6d200de90602401602060405180830381865afa158015610cab573d6000803e3d6000fd5b505050506040513d601f19601f82011682018060405250810190610ccf9190612295565b6001600160a01b0316826001600160a01b0316149050919050565b606082828080601f0160208091040260200160405190810160405280939291908181526020018383808284376000920182905250939450610d5a9250506001600160a01b037f000000000000000000000000000000000000000000000000000000000000000016905088306110b7565b9050610d686000888361114f565b610d7187611169565b610db084848080601f01602080910402602001604051908101604052809392919081815260200183838082843760009201919091525061123992505050565b9150610dbb82611403565b98975050505050505050565b60606001600160a01b0386163014610e185782828080601f01602080910402602001604051908101604052809392919081815260200183838082843760009201919091525092935061055492505050565b610e2187611501565b610e2c600088611597565b610e6b83838080601f01602080910402602001604051908101604052809392919081815260200183838082843760009201919091525061123992505050565b9050600454670de0b6b3a7640000610e8391906122b2565b610e8c886108ed565b1115610f3f57604051631b16777760e01b81526001600160a01b037f00000000000000000000000000000000000000000000000000000000000000001690631b16777790610ee1908a906001906004016122c9565b6020604051808303816000875af1158015610f00573d6000803e3d6000fd5b505050506040513d601f19601f82011682018060405250810190610f2491906122eb565b50610e1060046000828254610f399190612308565b90915550505b610dbb81611403565b6000806000806000610f598861165f565b604051631cd43d1160e31b81526001600160a01b038b811660048301528a811660248301528981166044830152919350908316915063e6a1e88890606401608060405180830381865afa158015610fb4573d6000803e3d6000fd5b505050506040513d601f19601f82011682018060405250810190610fd8919061231b565b929b919a509850909650945050505050565b6040805160008082526020820190925261100b9086908690869086906117e0565b95945050505050565b6060600061104c6001600160a01b037f00000000000000000000000000000000000000000000000000000000000000001686306110b7565b905061105a6000868361190f565b61106385611169565b6110a284848080601f01602080910402602001604051908101604052809392919081815260200183838082843760009201919091525061123992505050565b91506110ad82611403565b9695505050505050565b6000806110c38561165f565b604051631cd43d1160e31b81526001600160a01b03888116600483015287811660248301528681166044830152919350908316915063e6a1e88890606401608060405180830381865afa15801561111e573d6000803e3d6000fd5b505050506040513d601f19601f82011682018060405250810190611142919061231b565b5090979650505050505050565b6111598383611597565b61116483838361190f565b505050565b6001600160a01b038116600090815260208190526040812060010154600160a01b9004600b0b9061119d620f42408361236f565b600b0b90507f00000000000000000000000000000000000000000000000000000000000000006001600160a01b0316631b16777784836040518363ffffffff1660e01b81526004016111f09291906122c9565b6020604051808303816000875af115801561120f573d6000803e3d6000fd5b505050506040513d601f19601f8201168201806040525081019061123391906122eb565b50505050565b606060007f00000000000000000000000000000000000000000000000000000000000000006001600160a01b031663a754a7026040518163ffffffff1660e01b8152600401602060405180830381865afa15801561129b573d6000803e3d6000fd5b505050506040513d601f19601f820116820180604052508101906112bf919061224f565b600154604051630fefbc0960e01b81526001600160a01b039182166004820152919250670de0b6b3a7640000916000917f00000000000000000000000000000000000000000000000000000000000000001690630fefbc0990602401602060405180830381865afa158015611338573d6000803e3d6000fd5b505050506040513d601f19601f8201168201806040525081019061135c919061224f565b9050806001600160801b03166000036113785750929392505050565b6000611384828461236f565b9050600061139285836123b2565b9050600081600b0b13156113f9576113f66001600160a01b037f000000000000000000000000000000000000000000000000000000000000000016307f0000000000000000000000000000000000000000000000000000000000000000848b611bc0565b95505b5050505050919050565b60607f00000000000000000000000000000000000000000000000000000000000000006001600160a01b031663a754a7026040518163ffffffff1660e01b8152600401602060405180830381865afa158015611463573d6000803e3d6000fd5b505050506040513d601f19601f82011682018060405250810190611487919061224f565b6001600160801b031660000361149b575090565b6114fb307f00000000000000000000000000000000000000000000000000000000000000006114c8610711565b6001600160a01b037f00000000000000000000000000000000000000000000000000000000000000001692919086611bc0565b92915050565b604051631b16777760e01b81526001600160a01b037f00000000000000000000000000000000000000000000000000000000000000001690631b167777906115509084906000906004016122c9565b6020604051808303816000875af115801561156f573d6000803e3d6000fd5b505050506040513d601f19601f8201168201806040525081019061159391906122eb565b5050565b6001600160a01b0381811660008181526020859052604080822060018082018054835488168652848620830180549189166001600160a01b031992831617905592549054871685529290932080549286169290911691909117905584015490911603611633576001600160a01b03808216600090815260208490526040902060019081015490840180546001600160a01b031916919092161790555b6001600160a01b031660009081526020919091526040812080546001600160a01b031916815560010155565b7f65599bf746e17a00ea62e3610586992d88101b78eec3cf380706621fb97ea837547fb969d79d88acd02d04ed7ee7d43b949e7daf093d363abcfbbc43dfdfd1ce969a546001600160a01b0381166117af576001600160a01b03821661172457826001600160a01b03166320bc44256040518163ffffffff1660e01b8152600401602060405180830381865afa1580156116fd573d6000803e3d6000fd5b505050506040513d601f19601f820116820180604052508101906117219190612295565b91505b604051635b69006f60e11b81527fa9214cc96615e0085d3bb077758db69497dc2dce3b2b1e97bc93c3d18d83efd360048201526001600160a01b0383169063b6d200de90602401602060405180830381865afa158015611788573d6000803e3d6000fd5b505050506040513d601f19601f820116820180604052508101906117ac9190612295565b90505b6001600160a01b0382166117c5576117c56123d9565b6001600160a01b0381166117db576117db6123d9565b915091565b60008060006117ee88611ced565b91509150816001600160a01b03166339255d5b82836001600160a01b0316635a6c6dbc8c8c8c8c600067ffffffffffffffff81111561182f5761182f612359565b6040519080825280601f01601f191660200182016040528015611859576020820181803683370190505b5060405160240161186e9594939291906123ef565b60408051808303601f1901815291815260208201805160e094851b6001600160e01b03909116179052519185901b6001600160e01b03191682526118b993925090899060040161242d565b6000604051808303816000875af11580156118d8573d6000803e3d6000fd5b505050506040513d6000823e601f3d908101601f1916820160405261190091908101906124e1565b50600198975050505050505050565b60018301546001600160a01b031661197657600180840180546001600160a01b039485166001600160a01b031990911681179091556000908152602094909452604090932090920180546001600160601b03909316600160a01b0292909116919091179055565b6001808401546001600160a01b0390811660009081526020869052604090209091015416611aab576001808401546001600160a01b031660009081526020859052604090200154600b82810b600160a01b909204900b1215611a3e57600180840180546001600160a01b03908116600090815260208790526040808220850180548489166001600160a01b03199182168117909255945490835291208054909316908216178255910180546001600160601b038416600160a01b029216919091179055505050565b600180840180546001600160a01b0390811660009081526020969096526040808720840180549683166001600160a01b03199788168117909155925492875290952080549094169085161783559190910180546001600160601b03909216600160a01b0291909216179055565b60018301546001600160a01b03165b6001600160a01b03811615611233576001600160a01b038116600090815260208590526040902060010154600b83810b600160a01b909204900b1215611b9d5760018401546001600160a01b0390811690821603611b30576001840180546001600160a01b0319166001600160a01b0385161790555b6001600160a01b03928316600081815260209590955260408086206001810180549487166001600160a01b0319958616811782558852918720805482548616908816179091558054909316821790925590935282546001600160601b03909116600160a01b029116179055565b6001600160a01b0390811660009081526020859052604090206001015416611aba565b6060600080611bce88611ced565b91509150816001600160a01b0316634329d29382836001600160a01b0316635a6c6dbc8c8c8c8c600067ffffffffffffffff811115611c0f57611c0f612359565b6040519080825280601f01601f191660200182016040528015611c39576020820181803683370190505b50604051602401611c4e9594939291906123ef565b60408051808303601f1901815291815260208201805160e094851b6001600160e01b03909116179052519185901b6001600160e01b0319168252611c9993925090899060040161251e565b6000604051808303816000875af1158015611cb8573d6000803e3d6000fd5b505050506040513d6000823e601f3d908101601f19168201604052611ce09190810190612571565b5098975050505050505050565b7f65599bf746e17a00ea62e3610586992d88101b78eec3cf380706621fb97ea837547fc36f6c05164a669ecb6da53e218d77ae44d51cfc99f91e5a125a18de0949bee4546001600160a01b0381166117af576001600160a01b038216611db257826001600160a01b03166320bc44256040518163ffffffff1660e01b8152600401602060405180830381865afa158015611d8b573d6000803e3d6000fd5b505050506040513d601f19601f82011682018060405250810190611daf9190612295565b91505b604051635b69006f60e11b81527fdfd8ece9bfbcb8c5c540edb935641f63d67686490a1ab97f000288759f30a94660048201526001600160a01b0383169063b6d200de90602401602060405180830381865afa158015611e16573d6000803e3d6000fd5b505050506040513d601f19601f82011682018060405250810190611e3a9190612295565b9050817f65599bf746e17a00ea62e3610586992d88101b78eec3cf380706621fb97ea83755807fc36f6c05164a669ecb6da53e218d77ae44d51cfc99f91e5a125a18de0949bee4556001600160a01b0382166117c5576117c56123d9565b6001600160a01b03811681146108ea57600080fd5b60008083601f840112611ebf57600080fd5b50813567ffffffffffffffff811115611ed757600080fd5b602083019150836020828501011115611eef57600080fd5b9250929050565b600080600080600080600080600060c08a8c031215611f1457600080fd5b8935611f1f81611e98565b985060208a0135611f2f81611e98565b975060408a0135965060608a013567ffffffffffffffff80821115611f5357600080fd5b611f5f8d838e01611ead565b909850965060808c0135915080821115611f7857600080fd5b611f848d838e01611ead565b909650945060a08c0135915080821115611f9d57600080fd5b50611faa8c828d01611ead565b915080935050809150509295985092959850929598565b60005b83811015611fdc578181015183820152602001611fc4565b50506000910152565b60008151808452611ffd816020860160208601611fc1565b601f01601f19169290920160200192915050565b6020815260006109b06020830184611fe5565b600080600080600080600060a0888a03121561203f57600080fd5b873561204a81611e98565b9650602088013561205a81611e98565b955060408801359450606088013567ffffffffffffffff8082111561207e57600080fd5b61208a8b838c01611ead565b909650945060808a01359150808211156120a357600080fd5b506120b08a828b01611ead565b989b979a50959850939692959293505050565b6000602082840312156120d557600080fd5b81356109b081611e98565b80151581146108ea57600080fd5b60008060006060848603121561210357600080fd5b833561210e816120e0565b9250602084013561211e816120e0565b9150604084013561212e816120e0565b809150509250925092565b6000806040838503121561214c57600080fd5b823561215781611e98565b9150602083013561216781611e98565b809150509250929050565b80600b0b81146108ea57600080fd5b6000806040838503121561219457600080fd5b823561219f81612172565b946020939093013593505050565b600080604083850312156121c057600080fd5b82359150602083013561216781612172565b6000602082840312156121e457600080fd5b5051919050565b634e487b7160e01b600052601260045260246000fd5b634e487b7160e01b600052601160045260246000fd5b600082612226576122266121eb565b500490565b6000806040838503121561223e57600080fd5b505080516020909101519092909150565b60006020828403121561226157600080fd5b81516001600160801b03811681146109b057600080fd5b60006020828403121561228a57600080fd5b81516109b081612172565b6000602082840312156122a757600080fd5b81516109b081611e98565b80820281158282048414176114fb576114fb612201565b6001600160a01b039290921682526001600160801b0316602082015260400190565b6000602082840312156122fd57600080fd5b81516109b0816120e0565b808201808211156114fb576114fb612201565b6000806000806080858703121561233157600080fd5b84519350602085015161234381612172565b6040860151606090960151949790965092505050565b634e487b7160e01b600052604160045260246000fd5b600081600b0b83600b0b80612386576123866121eb565b6b7fffffffffffffffffffffff198214600019821416156123a9576123a9612201565b90059392505050565b600082600b0b82600b0b0280600b0b91508082146123d2576123d2612201565b5092915050565b634e487b7160e01b600052600160045260246000fd5b6001600160a01b038681168252858116602083015284166040820152600b83900b606082015260a06080820181905260009061055490830184611fe5565b6001600160a01b038416815260606020820181905260009061245190830185611fe5565b82810360408401526110ad8185611fe5565b600082601f83011261247457600080fd5b815167ffffffffffffffff8082111561248f5761248f612359565b604051601f8301601f19908116603f011681019082821181831017156124b7576124b7612359565b816040528381528660208588010111156124d057600080fd5b6110ad846020830160208901611fc1565b6000602082840312156124f357600080fd5b815167ffffffffffffffff81111561250a57600080fd5b61251684828501612463565b949350505050565b6001600160a01b038416815260806020820181905260009061254290830185611fe5565b8281038060408501526002825261060f60f31b6020830152604081016060850152506110ad6040820185611fe5565b6000806040838503121561258457600080fd5b825167ffffffffffffffff8082111561259c57600080fd5b6125a886838701612463565b935060208501519150808211156125be57600080fd5b506125cb85828601612463565b915050925092905056fea2646970667358221220f26bb9fd1793066ecb18090ba85342db56980c60fb2f2ea7cf457fbf7102de9b64736f6c63430008170033c36f6c05164a669ecb6da53e218d77ae44d51cfc99f91e5a125a18de0949bee4000000000000000000000000fcbe8e1bae528b28677819e89249eca036dc6afc0000000000000000000000006d31e61dde5f12c5e8151c9846c7e8dfde4b7603",
        "nonce": "0x4"
      },
      "additionalContracts": [
        {
          "transactionType": "CREATE",
          "address": "0x3ee2A58CeBa45e827cd623f7Bc532549339972c8",
          "initCode": "0x60806040526040516106cc3803806106cc83398101604081905261002291610420565b61002e82826000610035565b505061054a565b61003e836100f6565b6040516001600160a01b038416907f1cf3b03a6cf19fa2baba4df148e9dcabedea7f8a5c07840e207e5c089be95d3e90600090a260008251118061007f5750805b156100f1576100ef836001600160a01b0316635c60da1b6040518163ffffffff1660e01b8152600401602060405180830381865afa1580156100c5573d6000803e3d6000fd5b505050506040513d601f19601f820116820180604052508101906100e991906104e0565b8361027a565b505b505050565b6001600160a01b0381163b6101605760405162461bcd60e51b815260206004820152602560248201527f455243313936373a206e657720626561636f6e206973206e6f74206120636f6e6044820152641d1c9858dd60da1b60648201526084015b60405180910390fd5b6101d4816001600160a01b0316635c60da1b6040518163ffffffff1660e01b8152600401602060405180830381865afa1580156101a1573d6000803e3d6000fd5b505050506040513d601f19601f820116820180604052508101906101c591906104e0565b6001600160a01b03163b151590565b6102395760405162461bcd60e51b815260206004820152603060248201527f455243313936373a20626561636f6e20696d706c656d656e746174696f6e206960448201526f1cc81b9bdd08184818dbdb9d1c9858dd60821b6064820152608401610157565b7fa3f0ad74e5423aebfd80d3ef4346578335a9a72aeaee59ff6cb3582b35133d5080546001600160a01b0319166001600160a01b0392909216919091179055565b606061029f83836040518060600160405280602781526020016106a5602791396102a6565b9392505050565b6060600080856001600160a01b0316856040516102c391906104fb565b600060405180830381855af49150503d80600081146102fe576040519150601f19603f3d011682016040523d82523d6000602084013e610303565b606091505b5090925090506103158683838761031f565b9695505050505050565b6060831561038e578251600003610387576001600160a01b0385163b6103875760405162461bcd60e51b815260206004820152601d60248201527f416464726573733a2063616c6c20746f206e6f6e2d636f6e74726163740000006044820152606401610157565b5081610398565b61039883836103a0565b949350505050565b8151156103b05781518083602001fd5b8060405162461bcd60e51b81526004016101579190610517565b80516001600160a01b03811681146103e157600080fd5b919050565b634e487b7160e01b600052604160045260246000fd5b60005b838110156104175781810151838201526020016103ff565b50506000910152565b6000806040838503121561043357600080fd5b61043c836103ca565b60208401519092506001600160401b038082111561045957600080fd5b818501915085601f83011261046d57600080fd5b81518181111561047f5761047f6103e6565b604051601f8201601f19908116603f011681019083821181831017156104a7576104a76103e6565b816040528281528860208487010111156104c057600080fd5b6104d18360208301602088016103fc565b80955050505050509250929050565b6000602082840312156104f257600080fd5b61029f826103ca565b6000825161050d8184602087016103fc565b9190910192915050565b60208152600082518060208401526105368160408501602087016103fc565b601f01601f19169190910160400192915050565b61014c806105596000396000f3fe60806040523661001357610011610017565b005b6100115b610027610022610029565b6100c2565b565b600061005c7fa3f0ad74e5423aebfd80d3ef4346578335a9a72aeaee59ff6cb3582b35133d50546001600160a01b031690565b6001600160a01b0316635c60da1b6040518163ffffffff1660e01b8152600401602060405180830381865afa158015610099573d6000803e3d6000fd5b505050506040513d601f19601f820116820180604052508101906100bd91906100e6565b905090565b3660008037600080366000845af43d6000803e8080156100e1573d6000f35b3d6000fd5b6000602082840312156100f857600080fd5b81516001600160a01b038116811461010f57600080fd5b939250505056fea2646970667358221220b806e4704a8851bbc1a31fff59195f600be8dca467736c3aa10064903374676664736f6c63430008170033416464726573733a206c6f772d6c6576656c2064656c65676174652063616c6c206661696c6564000000000000000000000000712a3edf1fb9070695bf08adf82c289fb1972e780000000000000000000000000000000000000000000000000000000000000040000000000000000000000000000000000000000000000000000000000000008489287e0a00000000000000000000000095060a0c68f6ff845cb35451c1d2f234893c1dd70000000000000000000000006d31e61dde5f12c5e8151c9846c7e8dfde4b76030000000000000000000000000000000000000000000000000000000000000000000000000000000000000000000000000000000000000000000000000000000000000000000000000000000000000000000000000000000000000000"
        },
        {
          "transactionType": "CREATE",
          "address": "0x02509f227501384ea8CFB9128d5eD031e6909514",
          "initCode": "0x60806040526040516106cc3803806106cc83398101604081905261002291610420565b61002e82826000610035565b505061054a565b61003e836100f6565b6040516001600160a01b038416907f1cf3b03a6cf19fa2baba4df148e9dcabedea7f8a5c07840e207e5c089be95d3e90600090a260008251118061007f5750805b156100f1576100ef836001600160a01b0316635c60da1b6040518163ffffffff1660e01b8152600401602060405180830381865afa1580156100c5573d6000803e3d6000fd5b505050506040513d601f19601f820116820180604052508101906100e991906104e0565b8361027a565b505b505050565b6001600160a01b0381163b6101605760405162461bcd60e51b815260206004820152602560248201527f455243313936373a206e657720626561636f6e206973206e6f74206120636f6e6044820152641d1c9858dd60da1b60648201526084015b60405180910390fd5b6101d4816001600160a01b0316635c60da1b6040518163ffffffff1660e01b8152600401602060405180830381865afa1580156101a1573d6000803e3d6000fd5b505050506040513d601f19601f820116820180604052508101906101c591906104e0565b6001600160a01b03163b151590565b6102395760405162461bcd60e51b815260206004820152603060248201527f455243313936373a20626561636f6e20696d706c656d656e746174696f6e206960448201526f1cc81b9bdd08184818dbdb9d1c9858dd60821b6064820152608401610157565b7fa3f0ad74e5423aebfd80d3ef4346578335a9a72aeaee59ff6cb3582b35133d5080546001600160a01b0319166001600160a01b0392909216919091179055565b606061029f83836040518060600160405280602781526020016106a5602791396102a6565b9392505050565b6060600080856001600160a01b0316856040516102c391906104fb565b600060405180830381855af49150503d80600081146102fe576040519150601f19603f3d011682016040523d82523d6000602084013e610303565b606091505b5090925090506103158683838761031f565b9695505050505050565b6060831561038e578251600003610387576001600160a01b0385163b6103875760405162461bcd60e51b815260206004820152601d60248201527f416464726573733a2063616c6c20746f206e6f6e2d636f6e74726163740000006044820152606401610157565b5081610398565b61039883836103a0565b949350505050565b8151156103b05781518083602001fd5b8060405162461bcd60e51b81526004016101579190610517565b80516001600160a01b03811681146103e157600080fd5b919050565b634e487b7160e01b600052604160045260246000fd5b60005b838110156104175781810151838201526020016103ff565b50506000910152565b6000806040838503121561043357600080fd5b61043c836103ca565b60208401519092506001600160401b038082111561045957600080fd5b818501915085601f83011261046d57600080fd5b81518181111561047f5761047f6103e6565b604051601f8201601f19908116603f011681019083821181831017156104a7576104a76103e6565b816040528281528860208487010111156104c057600080fd5b6104d18360208301602088016103fc565b80955050505050509250929050565b6000602082840312156104f257600080fd5b61029f826103ca565b6000825161050d8184602087016103fc565b9190910192915050565b60208152600082518060208401526105368160408501602087016103fc565b601f01601f19169190910160400192915050565b61014c806105596000396000f3fe60806040523661001357610011610017565b005b6100115b610027610022610029565b6100c2565b565b600061005c7fa3f0ad74e5423aebfd80d3ef4346578335a9a72aeaee59ff6cb3582b35133d50546001600160a01b031690565b6001600160a01b0316635c60da1b6040518163ffffffff1660e01b8152600401602060405180830381865afa158015610099573d6000803e3d6000fd5b505050506040513d601f19601f820116820180604052508101906100bd91906100e6565b905090565b3660008037600080366000845af43d6000803e8080156100e1573d6000f35b3d6000fd5b6000602082840312156100f857600080fd5b81516001600160a01b038116811461010f57600080fd5b939250505056fea2646970667358221220b806e4704a8851bbc1a31fff59195f600be8dca467736c3aa10064903374676664736f6c63430008170033416464726573733a206c6f772d6c6576656c2064656c65676174652063616c6c206661696c6564000000000000000000000000712a3edf1fb9070695bf08adf82c289fb1972e780000000000000000000000000000000000000000000000000000000000000040000000000000000000000000000000000000000000000000000000000000008489287e0a00000000000000000000000095060a0c68f6ff845cb35451c1d2f234893c1dd7000000000000000000000000fcbe8e1bae528b28677819e89249eca036dc6afc0000000000000000000000000000000000000000000000000000000000000000000000000000000000000000000000000000000000000000000000000000000100000000000000000000000000000000000000000000000000000000"
        }
      ],
      "isFixedGasLimit": false
    },
    {
      "hash": "0xa7b656dbcecbb5b5169e689659073745d2673a029d9a78753a1066b9c766e675",
      "transactionType": "CALL",
      "contractName": "test/MintableSuperToken.sol:MintableSuperToken",
      "contractAddress": "0x6D31e61DDe5f12c5E8151C9846C7e8dfDE4B7603",
      "function": "mint(address,uint256)",
      "arguments": [
        "0x95060a0C68f6ff845cb35451c1d2F234893C1DD7",
        "10000000000000000000000000000000000000000"
      ],
      "transaction": {
        "type": "0x00",
        "from": "0xaa7dbadaa2f1aded7e9299947b3a94ea35eab069",
        "to": "0x6d31e61dde5f12c5e8151c9846c7e8dfde4b7603",
        "gas": "0x1cde2",
        "value": "0x0",
        "data": "0x40c10f1900000000000000000000000095060a0c68f6ff845cb35451c1d2f234893c1dd70000000000000000000000000000001d6329f1c35ca4bfabb9f5610000000000",
        "nonce": "0x5"
      },
      "additionalContracts": [],
      "isFixedGasLimit": false
    },
    {
      "hash": "0x36e8f35e0cd8ad2453200e79ab5048be542ea517981633e3f01bc0f4777f52ad",
      "transactionType": "CALL",
      "contractName": "test/MintableSuperToken.sol:MintableSuperToken",
      "contractAddress": "0xFcBe8E1BaE528b28677819E89249ECA036Dc6aFc",
      "function": "mint(address,uint256)",
      "arguments": [
        "0xAa163c47065c22D17Ed1c47E3E244337D2056c17",
        "10000000000000000000000000000000000000000"
      ],
      "transaction": {
        "type": "0x00",
        "from": "0xaa7dbadaa2f1aded7e9299947b3a94ea35eab069",
        "to": "0xfcbe8e1bae528b28677819e89249eca036dc6afc",
        "gas": "0x1cde2",
        "value": "0x0",
        "data": "0x40c10f19000000000000000000000000aa163c47065c22d17ed1c47e3e244337d2056c170000000000000000000000000000001d6329f1c35ca4bfabb9f5610000000000",
        "nonce": "0x6"
      },
      "additionalContracts": [],
      "isFixedGasLimit": false
    }
  ],
  "receipts": [
    {
      "transactionHash": "0x8de0386bef3a0aa1cd293688e123a27c858df37b1374fc59bb6737bf65ca4bc7",
      "transactionIndex": "0x2f",
      "blockHash": "0xda5a1740e03b5509497ae81a44ea3b44c40beefc9588d92e628ba8ade2bb1228",
      "blockNumber": "0x60378f",
      "from": "0xAA7dBAdAA2F1ADed7e9299947B3a94ea35eaB069",
      "to": null,
      "cumulativeGasUsed": "0x6cd4f7",
      "gasUsed": "0x70fd1",
      "contractAddress": "0x6D31e61DDe5f12c5E8151C9846C7e8dfDE4B7603",
      "logs": [
        {
          "address": "0x6D31e61DDe5f12c5E8151C9846C7e8dfDE4B7603",
          "topics": [
            "0x8be0079c531659141344cd1fd0a4f28419497f9722a3daafe3b4186f6b6457e0",
            "0x0000000000000000000000000000000000000000000000000000000000000000",
            "0x000000000000000000000000aa7dbadaa2f1aded7e9299947b3a94ea35eab069"
          ],
          "data": "0x",
          "blockHash": "0xda5a1740e03b5509497ae81a44ea3b44c40beefc9588d92e628ba8ade2bb1228",
          "blockNumber": "0x60378f",
          "transactionHash": "0x8de0386bef3a0aa1cd293688e123a27c858df37b1374fc59bb6737bf65ca4bc7",
          "transactionIndex": "0x2f",
          "logIndex": "0x53",
          "removed": false
        }
      ],
      "status": "0x1",
      "logsBloom": "0x00000000000000080000000000000000000000000000000000800000000000000000000000000000000000000000000000000000000000000000000000000000000000000000000000000000000000000001000000000000000000000000000000000000020000000000000000000800000000080000000000000400000000400000000000000000000000000000000000000000000000000008000000000000000000000000000000000000000000000000000000000000000000000000000000000000000000000000000000000000000000000000000000010000000020000000000000000000000000000000008000000000000000000000000000000000",
      "type": "0x0",
      "effectiveGasPrice": "0x921df82"
    },
    {
      "transactionHash": "0x141501ebe8cdb4b9a94a06692d8f1be819fe6460d5096656352d78482af92dd2",
      "transactionIndex": "0x30",
      "blockHash": "0xda5a1740e03b5509497ae81a44ea3b44c40beefc9588d92e628ba8ade2bb1228",
      "blockNumber": "0x60378f",
      "from": "0xAA7dBAdAA2F1ADed7e9299947B3a94ea35eaB069",
      "to": "0x6D31e61DDe5f12c5E8151C9846C7e8dfDE4B7603",
      "cumulativeGasUsed": "0x7017df",
      "gasUsed": "0x342e8",
      "contractAddress": null,
      "logs": [
        {
          "address": "0x254C2e152E8602839D288A7bccdf3d0974597193",
          "topics": [
            "0x437790724a6e97b75d23117f28cdd4b1beeafc34f7a0911ef256e9334f4369a5",
            "0x0000000000000000000000006d31e61dde5f12c5e8151c9846c7e8dfde4b7603"
          ],
          "data": "0x",
          "blockHash": "0xda5a1740e03b5509497ae81a44ea3b44c40beefc9588d92e628ba8ade2bb1228",
          "blockNumber": "0x60378f",
          "transactionHash": "0x141501ebe8cdb4b9a94a06692d8f1be819fe6460d5096656352d78482af92dd2",
          "transactionIndex": "0x30",
          "logIndex": "0x54",
          "removed": false
        },
        {
          "address": "0x1820a4B7618BdE71Dce8cdc73aAB6C95905faD24",
          "topics": [
            "0x93baa6efbd2244243bfee6ce4cfdd1d04fc4c0e9a786abd3a41313bd352db153",
            "0x0000000000000000000000006d31e61dde5f12c5e8151c9846c7e8dfde4b7603",
            "0xac7fbab5f54a3ca8194167523c6753bfeb96a445279294b6125b68cce2177054",
            "0x0000000000000000000000006d31e61dde5f12c5e8151c9846c7e8dfde4b7603"
          ],
          "data": "0x",
          "blockHash": "0xda5a1740e03b5509497ae81a44ea3b44c40beefc9588d92e628ba8ade2bb1228",
          "blockNumber": "0x60378f",
          "transactionHash": "0x141501ebe8cdb4b9a94a06692d8f1be819fe6460d5096656352d78482af92dd2",
          "transactionIndex": "0x30",
          "logIndex": "0x55",
          "removed": false
        },
        {
          "address": "0x1820a4B7618BdE71Dce8cdc73aAB6C95905faD24",
          "topics": [
            "0x93baa6efbd2244243bfee6ce4cfdd1d04fc4c0e9a786abd3a41313bd352db153",
            "0x0000000000000000000000006d31e61dde5f12c5e8151c9846c7e8dfde4b7603",
            "0xaea199e31a596269b42cdafd93407f14436db6e4cad65417994c2eb37381e05a",
            "0x0000000000000000000000006d31e61dde5f12c5e8151c9846c7e8dfde4b7603"
          ],
          "data": "0x",
          "blockHash": "0xda5a1740e03b5509497ae81a44ea3b44c40beefc9588d92e628ba8ade2bb1228",
          "blockNumber": "0x60378f",
          "transactionHash": "0x141501ebe8cdb4b9a94a06692d8f1be819fe6460d5096656352d78482af92dd2",
          "transactionIndex": "0x30",
          "logIndex": "0x56",
          "removed": false
        },
        {
          "address": "0x6D31e61DDe5f12c5E8151C9846C7e8dfDE4B7603",
          "topics": [
            "0xddf252ad1be2c89b69c2b068fc378daa952ba7f163c4a11628f55a4df523b3ef",
            "0x0000000000000000000000000000000000000000000000000000000000000000",
            "0x0000000000000000000000000000000000000000000000000000000000000000"
          ],
          "data": "0x0000000000000000000000000000000000000000000000000000000000000000",
          "blockHash": "0xda5a1740e03b5509497ae81a44ea3b44c40beefc9588d92e628ba8ade2bb1228",
          "blockNumber": "0x60378f",
          "transactionHash": "0x141501ebe8cdb4b9a94a06692d8f1be819fe6460d5096656352d78482af92dd2",
          "transactionIndex": "0x30",
          "logIndex": "0x57",
          "removed": false
        },
        {
          "address": "0x6D31e61DDe5f12c5E8151C9846C7e8dfDE4B7603",
          "topics": [
            "0x7e644d79422f17c01e4894b5f4f588d331ebfa28653d42ae832dc59e38c9798f",
            "0x0000000000000000000000000000000000000000000000000000000000000000",
            "0x0000000000000000000000000000000000000000000000000000000000000000"
          ],
          "data": "0x",
          "blockHash": "0xda5a1740e03b5509497ae81a44ea3b44c40beefc9588d92e628ba8ade2bb1228",
          "blockNumber": "0x60378f",
          "transactionHash": "0x141501ebe8cdb4b9a94a06692d8f1be819fe6460d5096656352d78482af92dd2",
          "transactionIndex": "0x30",
          "logIndex": "0x58",
          "removed": false
        },
        {
          "address": "0x6D31e61DDe5f12c5E8151C9846C7e8dfDE4B7603",
          "topics": [
            "0x7f26b83ff96e1f2b6a682f133852f6798a09c465da95921460cefb3847402498"
          ],
          "data": "0x0000000000000000000000000000000000000000000000000000000000000001",
          "blockHash": "0xda5a1740e03b5509497ae81a44ea3b44c40beefc9588d92e628ba8ade2bb1228",
          "blockNumber": "0x60378f",
          "transactionHash": "0x141501ebe8cdb4b9a94a06692d8f1be819fe6460d5096656352d78482af92dd2",
          "transactionIndex": "0x30",
          "logIndex": "0x59",
          "removed": false
        }
      ],
      "status": "0x1",
      "logsBloom": "0x00000000020000200000000000200000000000000000000000000000000000001000000000000000400000000000000000000000000000000000000000000000000000000000000000000008000000000000100000000000000000000000000000000100020400000000000000000800000010800020000000000410000000000000040000000000000000000000080000000000000080000000000000800000000000000000000000800000000400000000000000000000202800000000000000000002000000000000000000040002000000000410000000010000000020000000010000000000000000000000008002000000000000000000000000000800",
      "type": "0x0",
      "effectiveGasPrice": "0x921df82"
    },
    {
      "transactionHash": "0x81ec4011e92ca1c667ad2627008516373976252415d9aff5f4b7730ed60976b0",
      "transactionIndex": "0x31",
      "blockHash": "0xda5a1740e03b5509497ae81a44ea3b44c40beefc9588d92e628ba8ade2bb1228",
      "blockNumber": "0x60378f",
      "from": "0xAA7dBAdAA2F1ADed7e9299947B3a94ea35eaB069",
      "to": null,
      "cumulativeGasUsed": "0x7727b0",
      "gasUsed": "0x70fd1",
      "contractAddress": "0xFcBe8E1BaE528b28677819E89249ECA036Dc6aFc",
      "logs": [
        {
          "address": "0xFcBe8E1BaE528b28677819E89249ECA036Dc6aFc",
          "topics": [
            "0x8be0079c531659141344cd1fd0a4f28419497f9722a3daafe3b4186f6b6457e0",
            "0x0000000000000000000000000000000000000000000000000000000000000000",
            "0x000000000000000000000000aa7dbadaa2f1aded7e9299947b3a94ea35eab069"
          ],
          "data": "0x",
          "blockHash": "0xda5a1740e03b5509497ae81a44ea3b44c40beefc9588d92e628ba8ade2bb1228",
          "blockNumber": "0x60378f",
          "transactionHash": "0x81ec4011e92ca1c667ad2627008516373976252415d9aff5f4b7730ed60976b0",
          "transactionIndex": "0x31",
          "logIndex": "0x5a",
          "removed": false
        }
      ],
      "status": "0x1",
      "logsBloom": "0x00000000000000080000000000000000000000000000000000800000000000000000000000000000000000000000000000000000000000000000000000000000000000000000000000000000000000000001000000000000000000000000000000000000020000000000000000000800000000080000000000000000000000400000000000000000000000000000000000000000000000000008000000000010000000000000000000000000000000000000000000000000000000000000000000000000000000000000000000000000000000000004000000000000020020000000000000000000000000000000000000000000000000000000000000000000",
      "type": "0x0",
      "effectiveGasPrice": "0x921df82"
    },
    {
      "transactionHash": "0x9f3b966ec218dd1d077ad35b477098a5d32eb3d638fe41daf9347cfb7655424d",
      "transactionIndex": "0x32",
      "blockHash": "0xda5a1740e03b5509497ae81a44ea3b44c40beefc9588d92e628ba8ade2bb1228",
      "blockNumber": "0x60378f",
      "from": "0xAA7dBAdAA2F1ADed7e9299947B3a94ea35eaB069",
      "to": "0xFcBe8E1BaE528b28677819E89249ECA036Dc6aFc",
      "cumulativeGasUsed": "0x7a6a98",
      "gasUsed": "0x342e8",
      "contractAddress": null,
      "logs": [
        {
          "address": "0x254C2e152E8602839D288A7bccdf3d0974597193",
          "topics": [
            "0x437790724a6e97b75d23117f28cdd4b1beeafc34f7a0911ef256e9334f4369a5",
            "0x000000000000000000000000fcbe8e1bae528b28677819e89249eca036dc6afc"
          ],
          "data": "0x",
          "blockHash": "0xda5a1740e03b5509497ae81a44ea3b44c40beefc9588d92e628ba8ade2bb1228",
          "blockNumber": "0x60378f",
          "transactionHash": "0x9f3b966ec218dd1d077ad35b477098a5d32eb3d638fe41daf9347cfb7655424d",
          "transactionIndex": "0x32",
          "logIndex": "0x5b",
          "removed": false
        },
        {
          "address": "0x1820a4B7618BdE71Dce8cdc73aAB6C95905faD24",
          "topics": [
            "0x93baa6efbd2244243bfee6ce4cfdd1d04fc4c0e9a786abd3a41313bd352db153",
            "0x000000000000000000000000fcbe8e1bae528b28677819e89249eca036dc6afc",
            "0xac7fbab5f54a3ca8194167523c6753bfeb96a445279294b6125b68cce2177054",
            "0x000000000000000000000000fcbe8e1bae528b28677819e89249eca036dc6afc"
          ],
          "data": "0x",
          "blockHash": "0xda5a1740e03b5509497ae81a44ea3b44c40beefc9588d92e628ba8ade2bb1228",
          "blockNumber": "0x60378f",
          "transactionHash": "0x9f3b966ec218dd1d077ad35b477098a5d32eb3d638fe41daf9347cfb7655424d",
          "transactionIndex": "0x32",
          "logIndex": "0x5c",
          "removed": false
        },
        {
          "address": "0x1820a4B7618BdE71Dce8cdc73aAB6C95905faD24",
          "topics": [
            "0x93baa6efbd2244243bfee6ce4cfdd1d04fc4c0e9a786abd3a41313bd352db153",
            "0x000000000000000000000000fcbe8e1bae528b28677819e89249eca036dc6afc",
            "0xaea199e31a596269b42cdafd93407f14436db6e4cad65417994c2eb37381e05a",
            "0x000000000000000000000000fcbe8e1bae528b28677819e89249eca036dc6afc"
          ],
          "data": "0x",
          "blockHash": "0xda5a1740e03b5509497ae81a44ea3b44c40beefc9588d92e628ba8ade2bb1228",
          "blockNumber": "0x60378f",
          "transactionHash": "0x9f3b966ec218dd1d077ad35b477098a5d32eb3d638fe41daf9347cfb7655424d",
          "transactionIndex": "0x32",
          "logIndex": "0x5d",
          "removed": false
        },
        {
          "address": "0xFcBe8E1BaE528b28677819E89249ECA036Dc6aFc",
          "topics": [
            "0xddf252ad1be2c89b69c2b068fc378daa952ba7f163c4a11628f55a4df523b3ef",
            "0x0000000000000000000000000000000000000000000000000000000000000000",
            "0x0000000000000000000000000000000000000000000000000000000000000000"
          ],
          "data": "0x0000000000000000000000000000000000000000000000000000000000000000",
          "blockHash": "0xda5a1740e03b5509497ae81a44ea3b44c40beefc9588d92e628ba8ade2bb1228",
          "blockNumber": "0x60378f",
          "transactionHash": "0x9f3b966ec218dd1d077ad35b477098a5d32eb3d638fe41daf9347cfb7655424d",
          "transactionIndex": "0x32",
          "logIndex": "0x5e",
          "removed": false
        },
        {
          "address": "0xFcBe8E1BaE528b28677819E89249ECA036Dc6aFc",
          "topics": [
            "0x7e644d79422f17c01e4894b5f4f588d331ebfa28653d42ae832dc59e38c9798f",
            "0x0000000000000000000000000000000000000000000000000000000000000000",
            "0x0000000000000000000000000000000000000000000000000000000000000000"
          ],
          "data": "0x",
          "blockHash": "0xda5a1740e03b5509497ae81a44ea3b44c40beefc9588d92e628ba8ade2bb1228",
          "blockNumber": "0x60378f",
          "transactionHash": "0x9f3b966ec218dd1d077ad35b477098a5d32eb3d638fe41daf9347cfb7655424d",
          "transactionIndex": "0x32",
          "logIndex": "0x5f",
          "removed": false
        },
        {
          "address": "0xFcBe8E1BaE528b28677819E89249ECA036Dc6aFc",
          "topics": [
            "0x7f26b83ff96e1f2b6a682f133852f6798a09c465da95921460cefb3847402498"
          ],
          "data": "0x0000000000000000000000000000000000000000000000000000000000000001",
          "blockHash": "0xda5a1740e03b5509497ae81a44ea3b44c40beefc9588d92e628ba8ade2bb1228",
          "blockNumber": "0x60378f",
          "transactionHash": "0x9f3b966ec218dd1d077ad35b477098a5d32eb3d638fe41daf9347cfb7655424d",
          "transactionIndex": "0x32",
          "logIndex": "0x60",
          "removed": false
        }
      ],
      "status": "0x1",
      "logsBloom": "0x00000000020000200000000000200000000000000000000000000000000000001000000100000000400000000000000000000000000000000000000000000000000000000020000000000008000000000000100000000000000000000000000000000100020400000000000000000800000010800020000000000010000000000000040000000000000000000000080000000000000080000000000000800010000000000000000000000000000400000000000000000000200800000000000000000002000000000000000000040002000000000414000000000000020020000000010000000000000000000000000002000000000000000000000400000000",
      "type": "0x0",
      "effectiveGasPrice": "0x921df82"
    },
    {
      "transactionHash": "0x14fab0be1c99a0ec12368d4dfa7eb2fb693697e613c5956902257a58398894c2",
      "transactionIndex": "0x39",
      "blockHash": "0xda5a1740e03b5509497ae81a44ea3b44c40beefc9588d92e628ba8ade2bb1228",
      "blockNumber": "0x60378f",
      "from": "0xAA7dBAdAA2F1ADed7e9299947B3a94ea35eaB069",
      "to": null,
      "cumulativeGasUsed": "0xac03db",
      "gasUsed": "0x2c46dd",
      "contractAddress": "0x95060a0C68f6ff845cb35451c1d2F234893C1DD7",
      "logs": [
        {
          "address": "0x109412E3C84f0539b43d39dB691B08c90f58dC7c",
          "topics": [
            "0x0d540ad8f39e07d19909687352b9fa017405d93c91a6760981fbae9cf28bfef7",
            "0x00000000000000000000000095060a0c68f6ff845cb35451c1d2f234893c1dd7"
          ],
          "data": "0x",
          "blockHash": "0xda5a1740e03b5509497ae81a44ea3b44c40beefc9588d92e628ba8ade2bb1228",
          "blockNumber": "0x60378f",
          "transactionHash": "0x14fab0be1c99a0ec12368d4dfa7eb2fb693697e613c5956902257a58398894c2",
          "transactionIndex": "0x39",
          "logIndex": "0x67",
          "removed": false
        },
        {
          "address": "0x3ee2A58CeBa45e827cd623f7Bc532549339972c8",
          "topics": [
            "0x1cf3b03a6cf19fa2baba4df148e9dcabedea7f8a5c07840e207e5c089be95d3e",
            "0x000000000000000000000000712a3edf1fb9070695bf08adf82c289fb1972e78"
          ],
          "data": "0x",
          "blockHash": "0xda5a1740e03b5509497ae81a44ea3b44c40beefc9588d92e628ba8ade2bb1228",
          "blockNumber": "0x60378f",
          "transactionHash": "0x14fab0be1c99a0ec12368d4dfa7eb2fb693697e613c5956902257a58398894c2",
          "transactionIndex": "0x39",
          "logIndex": "0x68",
          "removed": false
        },
        {
          "address": "0x3ee2A58CeBa45e827cd623f7Bc532549339972c8",
          "topics": [
            "0x7f26b83ff96e1f2b6a682f133852f6798a09c465da95921460cefb3847402498"
          ],
          "data": "0x0000000000000000000000000000000000000000000000000000000000000001",
          "blockHash": "0xda5a1740e03b5509497ae81a44ea3b44c40beefc9588d92e628ba8ade2bb1228",
          "blockNumber": "0x60378f",
          "transactionHash": "0x14fab0be1c99a0ec12368d4dfa7eb2fb693697e613c5956902257a58398894c2",
          "transactionIndex": "0x39",
          "logIndex": "0x69",
          "removed": false
        },
        {
          "address": "0x6D31e61DDe5f12c5E8151C9846C7e8dfDE4B7603",
          "topics": [
            "0x30f416fa68fca014a0f334464c64b000ba53e99b6d2afdea9d5ca756372d5985",
            "0x0000000000000000000000009823364056bca85dc3c4a3b96801314d082c8eb9",
            "0x0000000000000000000000003ee2a58ceba45e827cd623f7bc532549339972c8"
          ],
          "data": "0x0000000000000000000000000000000000000000000000000000000000000000",
          "blockHash": "0xda5a1740e03b5509497ae81a44ea3b44c40beefc9588d92e628ba8ade2bb1228",
          "blockNumber": "0x60378f",
          "transactionHash": "0x14fab0be1c99a0ec12368d4dfa7eb2fb693697e613c5956902257a58398894c2",
          "transactionIndex": "0x39",
          "logIndex": "0x6a",
          "removed": false
        },
        {
          "address": "0x1BD3b6522102F9ea406807f8ecaeB2D96278a83f",
          "topics": [
            "0xddf252ad1be2c89b69c2b068fc378daa952ba7f163c4a11628f55a4df523b3ef",
            "0x0000000000000000000000000000000000000000000000000000000000000000",
            "0x00000000000000000000000095060a0c68f6ff845cb35451c1d2f234893c1dd7",
            "0xddcbc6b021555dad9f93305d09497b38ae2b43fc7f0e3d662f847ebf21c8756f"
          ],
          "data": "0x",
          "blockHash": "0xda5a1740e03b5509497ae81a44ea3b44c40beefc9588d92e628ba8ade2bb1228",
          "blockNumber": "0x60378f",
          "transactionHash": "0x14fab0be1c99a0ec12368d4dfa7eb2fb693697e613c5956902257a58398894c2",
          "transactionIndex": "0x39",
          "logIndex": "0x6b",
          "removed": false
        },
        {
          "address": "0x9823364056BcA85Dc3c4a3b96801314D082C8Eb9",
          "topics": [
            "0x9c5d829b9b23efc461f9aeef91979ec04bb903feb3bee4f26d22114abfc7335b",
            "0x0000000000000000000000006d31e61dde5f12c5e8151c9846c7e8dfde4b7603",
            "0x00000000000000000000000095060a0c68f6ff845cb35451c1d2f234893c1dd7"
          ],
          "data": "0x0000000000000000000000003ee2a58ceba45e827cd623f7bc532549339972c8",
          "blockHash": "0xda5a1740e03b5509497ae81a44ea3b44c40beefc9588d92e628ba8ade2bb1228",
          "blockNumber": "0x60378f",
          "transactionHash": "0x14fab0be1c99a0ec12368d4dfa7eb2fb693697e613c5956902257a58398894c2",
          "transactionIndex": "0x39",
          "logIndex": "0x6c",
          "removed": false
        },
        {
          "address": "0x02509f227501384ea8CFB9128d5eD031e6909514",
          "topics": [
            "0x1cf3b03a6cf19fa2baba4df148e9dcabedea7f8a5c07840e207e5c089be95d3e",
            "0x000000000000000000000000712a3edf1fb9070695bf08adf82c289fb1972e78"
          ],
          "data": "0x",
          "blockHash": "0xda5a1740e03b5509497ae81a44ea3b44c40beefc9588d92e628ba8ade2bb1228",
          "blockNumber": "0x60378f",
          "transactionHash": "0x14fab0be1c99a0ec12368d4dfa7eb2fb693697e613c5956902257a58398894c2",
          "transactionIndex": "0x39",
          "logIndex": "0x6d",
          "removed": false
        },
        {
          "address": "0x02509f227501384ea8CFB9128d5eD031e6909514",
          "topics": [
            "0x7f26b83ff96e1f2b6a682f133852f6798a09c465da95921460cefb3847402498"
          ],
          "data": "0x0000000000000000000000000000000000000000000000000000000000000001",
          "blockHash": "0xda5a1740e03b5509497ae81a44ea3b44c40beefc9588d92e628ba8ade2bb1228",
          "blockNumber": "0x60378f",
          "transactionHash": "0x14fab0be1c99a0ec12368d4dfa7eb2fb693697e613c5956902257a58398894c2",
          "transactionIndex": "0x39",
          "logIndex": "0x6e",
          "removed": false
        },
        {
          "address": "0xFcBe8E1BaE528b28677819E89249ECA036Dc6aFc",
          "topics": [
            "0x30f416fa68fca014a0f334464c64b000ba53e99b6d2afdea9d5ca756372d5985",
            "0x0000000000000000000000009823364056bca85dc3c4a3b96801314d082c8eb9",
            "0x00000000000000000000000002509f227501384ea8cfb9128d5ed031e6909514"
          ],
          "data": "0x0000000000000000000000000000000000000000000000000000000000000000",
          "blockHash": "0xda5a1740e03b5509497ae81a44ea3b44c40beefc9588d92e628ba8ade2bb1228",
          "blockNumber": "0x60378f",
          "transactionHash": "0x14fab0be1c99a0ec12368d4dfa7eb2fb693697e613c5956902257a58398894c2",
          "transactionIndex": "0x39",
          "logIndex": "0x6f",
          "removed": false
        },
        {
          "address": "0x1BD3b6522102F9ea406807f8ecaeB2D96278a83f",
          "topics": [
            "0xddf252ad1be2c89b69c2b068fc378daa952ba7f163c4a11628f55a4df523b3ef",
            "0x0000000000000000000000000000000000000000000000000000000000000000",
            "0x00000000000000000000000095060a0c68f6ff845cb35451c1d2f234893c1dd7",
            "0x7b5beb519a3e49b1432f0e2a442867e66cc6790a947d912bdfe7dbcfb2229dc6"
          ],
          "data": "0x",
          "blockHash": "0xda5a1740e03b5509497ae81a44ea3b44c40beefc9588d92e628ba8ade2bb1228",
          "blockNumber": "0x60378f",
          "transactionHash": "0x14fab0be1c99a0ec12368d4dfa7eb2fb693697e613c5956902257a58398894c2",
          "transactionIndex": "0x39",
          "logIndex": "0x70",
          "removed": false
        },
        {
          "address": "0x9823364056BcA85Dc3c4a3b96801314D082C8Eb9",
          "topics": [
            "0x9c5d829b9b23efc461f9aeef91979ec04bb903feb3bee4f26d22114abfc7335b",
            "0x000000000000000000000000fcbe8e1bae528b28677819e89249eca036dc6afc",
            "0x00000000000000000000000095060a0c68f6ff845cb35451c1d2f234893c1dd7"
          ],
          "data": "0x00000000000000000000000002509f227501384ea8cfb9128d5ed031e6909514",
          "blockHash": "0xda5a1740e03b5509497ae81a44ea3b44c40beefc9588d92e628ba8ade2bb1228",
          "blockNumber": "0x60378f",
          "transactionHash": "0x14fab0be1c99a0ec12368d4dfa7eb2fb693697e613c5956902257a58398894c2",
          "transactionIndex": "0x39",
          "logIndex": "0x71",
          "removed": false
        }
      ],
      "status": "0x1",
      "logsBloom": "0x00000000000000000000000000000000000000000004040000000000000000800400000100002000000010000000000002000000000000010000002000000000000000040020000080000008003200000000001400000000000100000000000000000001020000002000000000000840000000000000000000000410000400000000000200000000000001000000080000020000000080008000000000001010020000000000040000820000000400000080800000000000002000000000000000000002000000000800002000040000000000000004401004810000020021000000080000002000000080000000008000008000000001400000040420000808",
      "type": "0x0",
      "effectiveGasPrice": "0x921df82"
    },
    {
      "transactionHash": "0xa7b656dbcecbb5b5169e689659073745d2673a029d9a78753a1066b9c766e675",
      "transactionIndex": "0x3a",
      "blockHash": "0xda5a1740e03b5509497ae81a44ea3b44c40beefc9588d92e628ba8ade2bb1228",
      "blockNumber": "0x60378f",
      "from": "0xAA7dBAdAA2F1ADed7e9299947B3a94ea35eaB069",
      "to": "0x6D31e61DDe5f12c5E8151C9846C7e8dfDE4B7603",
      "cumulativeGasUsed": "0xad3fad",
      "gasUsed": "0x13bd2",
      "contractAddress": null,
      "logs": [
        {
          "address": "0x6D31e61DDe5f12c5E8151C9846C7e8dfDE4B7603",
          "topics": [
            "0x2fe5be0146f74c5bce36c0b80911af6c7d86ff27e89d5cfa61fc681327954e5d",
            "0x0000000000000000000000006d31e61dde5f12c5e8151c9846c7e8dfde4b7603",
            "0x00000000000000000000000095060a0c68f6ff845cb35451c1d2f234893c1dd7"
          ],
          "data": "0x0000000000000000000000000000001d6329f1c35ca4bfabb9f56100000000000000000000000000000000000000000000000000000000000000000000000060000000000000000000000000000000000000000000000000000000000000008000000000000000000000000000000000000000000000000000000000000000000000000000000000000000000000000000000000000000000000000000000000",
          "blockHash": "0xda5a1740e03b5509497ae81a44ea3b44c40beefc9588d92e628ba8ade2bb1228",
          "blockNumber": "0x60378f",
          "transactionHash": "0xa7b656dbcecbb5b5169e689659073745d2673a029d9a78753a1066b9c766e675",
          "transactionIndex": "0x3a",
          "logIndex": "0x72",
          "removed": false
        },
        {
          "address": "0x6D31e61DDe5f12c5E8151C9846C7e8dfDE4B7603",
          "topics": [
            "0xddf252ad1be2c89b69c2b068fc378daa952ba7f163c4a11628f55a4df523b3ef",
            "0x0000000000000000000000000000000000000000000000000000000000000000",
            "0x00000000000000000000000095060a0c68f6ff845cb35451c1d2f234893c1dd7"
          ],
          "data": "0x0000000000000000000000000000001d6329f1c35ca4bfabb9f5610000000000",
          "blockHash": "0xda5a1740e03b5509497ae81a44ea3b44c40beefc9588d92e628ba8ade2bb1228",
          "blockNumber": "0x60378f",
          "transactionHash": "0xa7b656dbcecbb5b5169e689659073745d2673a029d9a78753a1066b9c766e675",
          "transactionIndex": "0x3a",
          "logIndex": "0x73",
          "removed": false
        }
      ],
      "status": "0x1",
      "logsBloom": "0x00000000000000000000000000000000000000000000000000000000000000000040000000000000000000000080000000000000000000010000000000000000000000000000000000000008000000000000000000000000000000000000000000000000020000000000000000000800000000000000000000000410000400000000000000000000000000000000000000000000000000000000000000000000000000000020000000800000000000000000000000000000002000000000000000000002000000000000000000000000000000000000000000010000000020000000000000000000000000000000008000000000000000000000040000000800",
      "type": "0x0",
      "effectiveGasPrice": "0x921df82"
    },
    {
      "transactionHash": "0x36e8f35e0cd8ad2453200e79ab5048be542ea517981633e3f01bc0f4777f52ad",
      "transactionIndex": "0x3b",
      "blockHash": "0xda5a1740e03b5509497ae81a44ea3b44c40beefc9588d92e628ba8ade2bb1228",
      "blockNumber": "0x60378f",
      "from": "0xAA7dBAdAA2F1ADed7e9299947B3a94ea35eaB069",
      "to": "0xFcBe8E1BaE528b28677819E89249ECA036Dc6aFc",
      "cumulativeGasUsed": "0xae7b7f",
      "gasUsed": "0x13bd2",
      "contractAddress": null,
      "logs": [
        {
          "address": "0xFcBe8E1BaE528b28677819E89249ECA036Dc6aFc",
          "topics": [
            "0x2fe5be0146f74c5bce36c0b80911af6c7d86ff27e89d5cfa61fc681327954e5d",
            "0x000000000000000000000000fcbe8e1bae528b28677819e89249eca036dc6afc",
            "0x000000000000000000000000aa163c47065c22d17ed1c47e3e244337d2056c17"
          ],
          "data": "0x0000000000000000000000000000001d6329f1c35ca4bfabb9f56100000000000000000000000000000000000000000000000000000000000000000000000060000000000000000000000000000000000000000000000000000000000000008000000000000000000000000000000000000000000000000000000000000000000000000000000000000000000000000000000000000000000000000000000000",
          "blockHash": "0xda5a1740e03b5509497ae81a44ea3b44c40beefc9588d92e628ba8ade2bb1228",
          "blockNumber": "0x60378f",
          "transactionHash": "0x36e8f35e0cd8ad2453200e79ab5048be542ea517981633e3f01bc0f4777f52ad",
          "transactionIndex": "0x3b",
          "logIndex": "0x74",
          "removed": false
        },
        {
          "address": "0xFcBe8E1BaE528b28677819E89249ECA036Dc6aFc",
          "topics": [
            "0xddf252ad1be2c89b69c2b068fc378daa952ba7f163c4a11628f55a4df523b3ef",
            "0x0000000000000000000000000000000000000000000000000000000000000000",
            "0x000000000000000000000000aa163c47065c22d17ed1c47e3e244337d2056c17"
          ],
          "data": "0x0000000000000000000000000000001d6329f1c35ca4bfabb9f5610000000000",
          "blockHash": "0xda5a1740e03b5509497ae81a44ea3b44c40beefc9588d92e628ba8ade2bb1228",
          "blockNumber": "0x60378f",
          "transactionHash": "0x36e8f35e0cd8ad2453200e79ab5048be542ea517981633e3f01bc0f4777f52ad",
          "transactionIndex": "0x3b",
          "logIndex": "0x75",
          "removed": false
        }
      ],
      "status": "0x1",
      "logsBloom": "0x00000000000000000000000000000000000000000000000000000000000000000040200100000000000000000080000000000000000000000000000000000000000000000020000000000008000000000000000000000000000000000000000000000000020000002000000000000800000000000000000000000010000000000000000000000000000000000000000000000000000000000000000000000010000000000020000000000000000000000000000000000000000000200000000000000002000000000000000000000000000000000004000000000000020020000000000000000000000000000000000000000000000000000000000400000000",
      "type": "0x0",
      "effectiveGasPrice": "0x921df82"
    }
  ],
  "libraries": [],
  "pending": [],
  "returns": {},
  "timestamp": 1720914915,
  "chain": 11155111,
  "multi": false,
  "commit": "41507f7"
}